:100000000C9462000C9498090C9471090C948A0069
:100010000C948A000C948A000C948A000C948A0038
:100020000C948A000C948A000C948A000C94BF09EA
:100030000C948A000C948A000C948A000C948A0018
:100040000C9427090C948A000C948A000C948A0062
:100050000C948A000C948A000C948A000C948A00F8
:100060000C948A000C948A000000000023002600F3
:10007000290000000000240027002A0000000000E2
:10008000250028002B0004040404040404040202D4
:100090000202020203030303030301020408102007
:1000A0004080010204081020010204081020000012
:1000B0000008000201000003040700000000000027
:1000C0000000B51411241FBECFEFD8E0DEBFCDBFB6
:1000D00011E0A0E0B1E0E6EAFBE202C005900D927B
:1000E000AE30B107D9F722E0AEE0B1E001C01D9219
:1000F000AB3AB207E1F710E0C2E6D0E004C02197C6
:10010000FE010E94BE15C136D107C9F70E947B0AC5
:100110000C94D1150C9400008230F8F4E82FF0E034
:10012000EE0FFF1FE95FFE4F22E233E031832083B1
:10013000813041F0809169008C7F682B6093690069
:10014000E89A089580916900837F660F771F660F94
:10015000771F682B60936900E99A0895833081F0D6
:1001600028F4813099F08230A9F008958730A9F001
:100170008830C9F08430B1F4809180008F7D03C055
:10018000809180008F7780938000089584B58F7769
:1001900084BD089584B58F7DFBCF8091B0008F77AB
:1001A0008093B00008958091B0008F7DF9CF1F93A8
:1001B000CF93DF93282F30E0F901E255FF4F849170
:1001C000F901E656FF4FD491F901EA57FF4FC49168
:1001D000CC23A9F0162F81110E94AE00EC2FF0E085
:1001E000EE0FFF1FE458FF4FA591B4918FB7F8941D
:1001F000EC91111108C0D095DE23DC938FBFDF9105
:10020000CF911F910895DE2BF8CFCF93DF9390E02D
:10021000FC01E656FF4F24918A579F4FFC018491C1
:100220008823C9F090E0880F991FFC01EE58FF4F1A
:10023000A591B491FC01E458FF4FC591D49161118F
:100240000DC09FB7F8948C91209582238C93888160
:10025000282328839FBFDF91CF910895623051F406
:100260009FB7F8943C91822F809583238C93E881EB
:100270002E2BEFCF8FB7F894EC912E2B2C938FBFB2
:10028000EACF2FB7F8946091A7027091A8028091ED
:10029000A9029091AA022FBF089580E090E0892BD7
:1002A00011F00C940000089508951F93CF93DF93ED
:1002B000EC011C856D8570E090E080E0611B7109A8
:1002C0008109910922E030E040E050E00E942715CA
:1002D000120F1E87DF91CF911F910895CF93C82FE2
:1002E00080E090E0892B51F0809168018C1731F00B
:1002F00081E0C11101C080E00E940000C09368014C
:1003000060E070E0CB01C1110E944101609369017E
:1003100070936A0180936B0190936C0180E090E090
:10032000892B59F0809168018C1739F081E0C11157
:1003300001C080E0CF910C940000CF910895CF933D
:10034000DF9320917C0130917D012F3F320721F016
:10035000C901DF91CF91089580917F0187FF3FC050
:1003600086FF18C080E090E0892B91F089E090E052
:100370000E940000C82FD0E0DC2FCC2780E090E066
:10038000892B09F444C081E090E00E94000019C06C
:1003900081E0F0CF80E090E0892BE9F089E090E007
:1003A0000E94000090E4899FE0011124C07CD1707C
:1003B00080E090E0892B89F081E090E00E940000CD
:1003C0008F73C82BD0937D01C0937C0180917C01F9
:1003D00090917D01BECF81E0E5CF81E0F1CF85FF37
:1003E00018C080E090E0892B81F081E190E00E94CC
:1003F0000000282F205C330BD22FCC2780E090E028
:10040000892B29F082E190E0C0CF81E0F2CF81E03A
:10041000D8CF80E090E0892B51F081E090E00E94FD
:10042000000090E090937D0180937C01CFCF81E02C
:10043000F8CF1F93CF93DF93EC01162F83319105F3
:10044000C8F48131910528F48130910511F00997A4
:1004500031F48FEF9FEF90937D0180937C0180E0DA
:1004600090E0892BA9F0612FCE01DF91CF911F91F0
:100470000C9400004D9799F7177F10937F0180919E
:1004800066018F73912F907C892B80936601E1CF59
:100490001130A1F080E090E0892B21F0612FCE0196
:1004A0000E94000080E090E0892B41F0809166017D
:1004B00084FD04C0612FCE010E94000081E0DF9125
:1004C000CF911F9108951F93CF93DF93EC01162FC7
:1004D00080E090E0892B91F0C830D10579F4662353
:1004E00019F10E94000080E090E0892BB9F0612FA3
:1004F000CE01DF91CF911F910C94000080E090E03D
:10050000892BA9F781E0C11594E0D90708F080E0B4
:10051000111105C0DF91CF911F91089581E02797B8
:100520002297C0F780E0F6CF80E090E0892BF9F6C3
:1005300081E0F0CFBF92CF92DF92EF92FF920F93C4
:100540001F93CF93DF938B01D42F790182FF34C0A7
:1005500083FF17C061E0C8010E946302882301F194
:100560006D2FC8010E9419028D131AC0F701DF9187
:10057000CF911F910F91FF90EF90DF90CF90BF90A0
:10058000099460E0C8010E946302882349F080E07A
:1005900090E0892B79F0C8010E940000D81731F350
:1005A000DF91CF911F910F91FF90EF90DF90CF904F
:1005B000BF90089581E0F2CF842F877021E030E072
:1005C000690101C0CC0C8A95EAF7F42FF870BF2EB0
:1005D000D07180E090E0C1E0892B21F0CB010E9436
:1005E0000000C82FDD23A1F061E0C8010E94630272
:1005F0008823B1F2BB2049F0CC296C2FC8010E949E
:1006000019028C1709F4B2CFCBCFC094CC21F5CF0F
:1006100060E0C8010E946302882311F2CC21BB2054
:1006200019F0C111A3CFBCCFCC2309F49FCFB8CF11
:1006300080E090E0892B29F080917F0183FD0C946C
:1006400000000895FF920F931F93CF93DF933FB75E
:10065000F8948091A2029091A302A091A402B0917B
:10066000A50226B5A89B05C02F3F19F00196A11D34
:10067000B11D3FBFBA2FA92F982F8827820F911D38
:10068000A11DB11D42E0880F991FAA1FBB1F4A95EB
:10069000D1F72091150130911601EC01C21BD30B4B
:1006A00020911B0130911C01C217D30708F45FC0D1
:1006B00020915001309151012130310561F0E091DC
:1006C0007901F0917A01408150917B01452350914D
:1006D000190145134CC090931601809315010091A8
:1006E0001D0110911E012230310509F413C1233080
:1006F000310509F44EC12130310561F480911401B6
:10070000813009F447C0C8F1833009F482C08430D5
:1007100009F4C9C08091500190915101019739F1BC
:10072000C017D10708F06DC1809112018F5F8093CF
:1007300012018B30E0F081E090E0909351018093C2
:10074000500161E070E0809177010E948C0010926E
:1007500019011092140182E590E090931E0180939C
:100760001D0183E290E090931C0180931B01DF91B7
:10077000CF911F910F91FF900895C017D10730F4CA
:1007800081E080931401C0931301C4CF84E080936F
:100790001401C0CFC017D107D0F510921401809179
:1007A00012018F5F80931201209113018C2F0C2E68
:1007B000000C990B821B910927FD939597FF03C0AD
:1007C000919581959109499794F210925101109257
:1007D000500182E990E090931E0180931D0182E513
:1007E00090E090931C0180931B0110921201F090F5
:1007F0001A016F2D70E0809177010E948C0080912A
:100800007B0193E0F91227C08093190183CF83E025
:10081000BECFC017D10708F51092510110925001B8
:1008200082E990E090931E0180931D0182E590E0A3
:1008300090931C0180931B0110921201F0901A01F9
:100840006F2D70E0809177010E948C0080917B0178
:1008500033E0F316C9F280E0D7CF90911A019330BC
:1008600009F482E080931A0182E090E090935101B4
:100870008093500182E990E090931E0180931D01C6
:1008800082E590E090931C0180931B011092560129
:1008900080911201809357011092530110925501DB
:1008A00010925401CBCFC017D107A8F41092510178
:1008B0001092500182E990E090931E0180931D01F7
:1008C00082E590E090931C0180931B01109212012D
:1008D000109253018CCF82E090E09093510180936D
:1008E000500182E990E090931E0180931D0182E502
:1008F00090E090931C0180931B011092560180910F
:1009000012018093570110925301109255011092D9
:1009100054016DCF909153019F5F9093530180914B
:100920005401880FC017D107E0F08093540198302C
:1009300009F0F6CEE0915601E630A9F4109251018B
:100940001092500182E990E090931E0180931D0166
:1009500082E590E090931C0180931B01109253015B
:10096000D9CE8160E2CF83E090E0909351018093F3
:10097000500181E08E0F8093560190915401F0E078
:10098000E05BFE4F90878091550189278093550148
:10099000C1CEC017D10728F5109251011092500115
:1009A0001092530182E990E090931E0180931D0103
:1009B00082E590E090931C0180931B01809155018A
:1009C0008111B2CE88E0E6E5F1E0AEE5B1E001905C
:1009D0000D928A95E1F781E0809352011092120105
:1009E00099CE80915601863009F4A8CF82E090E03C
:1009F0009093510180935001109253011092540131
:100A000089CE10921201B3CE8F929F92AF92BF9275
:100A1000CF92DF92EF92FF92CF93DF93EB0190E0C2
:100A2000B0E0A0E06C017D0121E0C21AD108E1082C
:100A3000F108ACE4BFEFA70196010E9454152FE71F
:100A4000822E912CA12CB12CA50194010E94271576
:100A500028533F4F4F4F5F4F209383012197D9F485
:100A6000AAEBBFEFA70196010E945415A5019401BE
:100A70000E942715265A3F4F4F4F5F4F20938C01FE
:100A8000DF91CF91FF90EF90DF90CF90BF90AF902C
:100A90009F908F900895A6E4B0E0A70196010E9470
:100AA0004615E4CF8F30974221F4B901842F0C947E
:100AB000040508950F931F93CF93DF934091800116
:100AC00020918101522F5F708417950750F1485F84
:100AD0005F4F8417950728F529E1829FE0011124D3
:100AE0008E01045F1D4F262F30E0ACE8B0E00E947D
:100AF0007B152FEF30E040E050E00E9427152C5E80
:100B00003F4F4F4F5F4FF8012787CC5EDD4F888105
:100B1000816088830E944101F801658B768B878B09
:100B2000908FDF91CF911F910F910895880F815081
:100B3000809324011092250184E690E0A0E0B0E0CB
:100B40008093020190930301A0930401B0930501E7
:100B500081E08093230108950F931F93CF93DF9338
:100B6000EC018E818370823061F40E944101698BB7
:100B70007A8B8B8B9C8B8F818F778F8388858E7FF1
:100B800088878E8183708330E1F4888580FD19C069
:100B9000816088870E94410109891A892B893C89D3
:100BA000601B710B820B930B603D774081059105B3
:100BB00040F4E881F981309711F0CE01099581E088
:100BC00004C08E81837031F080E0DF91CF911F915E
:100BD0000F9108958F8187FDF7CF0E944101098908
:100BE0001A892B893C89601B710B820B930B603D2A
:100BF00077408105910540F3EA81FB81309711F040
:100C0000CE0109958F8180688F8382E0DECF0C94BE
:100C100011150E946E01E6E6F1E081E087831086FF
:100C2000EFE6F1E088E0DF011D928A95E9F708958B
:100C30000C9419151F93CF93DF93FC01108560FB73
:100C400012F91087828987FF12C0C389D48922963E
:100C5000CE010E940706682F12FF07C06160CE0117
:100C6000DF91CF911F910C9418066E7FF8CFDF9122
:100C7000CF911F910895CF92DF92EF92FF920F9341
:100C80001F93CF93DF93BC016F3087E2780709F0A1
:100C900053C04130510509F06CC0809195018E7FA1
:100CA0008093950181FB332730F9922F9071931730
:100CB00019F08D7F80939501909194019E7F909380
:100CC0009401822F817091FB332730F9831731F023
:100CD0009E7F982B80FB91F99093940180919301D2
:100CE0008E7F8093930181FB332730F9922F92708E
:100CF000931719F08D7F80939301809192018E7FDD
:100D00008093920181FB332730F9922F94709317CF
:100D100019F08D7F80939201809191018E7F809355
:100D2000910181FB332730F9922F9870931721F0AE
:100D300081608D7F8093910190918101892F807CCA
:100D400009F4C8C0E0918001F92FFF70E617F7079A
:100D500009F0C0C0803409F052C04130510509F09B
:100D6000B9C0CB0102966817790708F0B3C040E01C
:100D70005AC04230510509F0ADC0909190019E7F5C
:100D80009093900191FB332730F9822F8170831764
:100D900029F0916020FB91F99093900190918F013F
:100DA0009E7F90938F0191FB332730F9822F8270C1
:100DB000831721F091609D7F90938F0190918E0118
:100DC0009E7F90938E0191FB332730F9822F8470A0
:100DD000831721F091609D7F90938E0190918D01FA
:100DE0009E7F90938D0191FB332730F9822F88707D
:100DF000831709F4A1CF9D7F90938D019DCF8038FB
:100E000009F0B5CF4130510509F4B1CF4230510559
:100E100009F469C04330510509F467C044305105F5
:100E200009F058C04CE08FE090E0042E02C0880F1B
:100E3000991F0A94E2F78095909560911001709146
:100E40001101862397232F7030E002C0220F331F39
:100E50004A95E2F7282B392B30931101209310018A
:100E6000C0910E01D0910F0130930F0120930E011C
:100E70002C173D0779F18CE0E82E82E0F82E10E087
:100E800000E0C227D327CC24C394D12CC601002E66
:100E900002C0880F991F0A94E2F78C239D23892BA7
:100EA00089F06091100170911101002E02C07695B9
:100EB00067950A94E2F76170C7010E941A0683E001
:100EC0000E9496050F5F1F4F89E1E80EF11C063066
:100ED0001105E1F6DF91CF911F910F91FF90EF90F7
:100EE000DF90CF90089544E09ECF48E09CCFFF92E2
:100EF0000F931F93CF93DF93EC01942F402F892FF3
:100F0000807E803609F466C070F4803209F445C0F2
:100F1000803409F45FC0882381F1DF91CF911F9164
:100F20000F91FF900895803A09F487C070F4292F3B
:100F30002F7141E050E0803881F7CE01DF91CF91F1
:100F40001F910F91FF900C943B06803C09F47EC0EA
:100F5000803E19F7692F70E0762F66276627737039
:100F6000622B6F5F7F4F28E133E0892FDF91CF91B4
:100F70001F910F91FF900C949A02892F8E7069F641
:100F800020E030E0232B49F2892F8170DF91CF914F
:100F90001F910F91FF900C9400009F719F3109F0F9
:100FA000BCCF822F8F7791F0813091F0CF30D74234
:100FB00009F0B3CF221F2227221F622F70E0DF919A
:100FC000CF911F910F91FF900C94040581E0EECF1B
:100FD00080E0ECCF292F30E0892F8F71813029F00C
:100FE00030F0803121F08131F1F480E001C081E006
:100FF000F92E8B01CF3097E2D90731F425FB662714
:1010000060F970E00E94040580E090E0892B09F40B
:1010100084CF4F2DB801CE01DF91CF911F910F9159
:10102000FF900C940000A901440F551F4E7194FBD2
:10103000882780F9842B8250DBCF292F2F7043E043
:1010400050E094FF7ACF42E050E077CF9F719E311D
:1010500031F09F3109F061CF45E050E06ECF44E0C0
:1010600050E06BCFFF920F931F93CF93DF93EC0170
:10107000F62E08811981C8010E941115F81621F079
:101080006F2DC8010E941915CE01DF91CF911F91DC
:101090000F91FF900895CF92DF92EF92FF920F93FE
:1010A0001F93CF93DF9300D0CDB7DEB76C017C01E7
:1010B00004E813E01A830983F70161917F01CE01EF
:1010C00001960E9432080F5F1F4F0738F3E01F0799
:1010D00089F7C6010F900F90DF91CF911F910F916B
:1010E000FF90EF90DF90CF9008952091820120FD36
:1010F0000AC084309105E9F00497813028E0920716
:1011000010F080E098E020914B012223A9F010928A
:101110004B01809380019F7080918101807F892B9A
:101120008093810180E891E00E944B0886E00C9456
:10113000960581E090E0E7CF20918101207C69F560
:10114000442359F19C01215031092630310520F00A
:101150008FEF80930601089580934A0180930601E2
:1011600029E1289FF001299FF00D1124EC5EFD4F2D
:1011700020812E7F208321E0611101C020E039E130
:10118000389FA001399F500D1124622FCA01845F3E
:101190009D4F0E941A0683E0CACF08950F931F93B4
:1011A000CF93DF9300D0CDB7DEB78C01FC0164850F
:1011B000838994899A838983CE0101960E9432089B
:1011C000F80165858389948901969A838983CE0184
:1011D00001960E943208F8016385838994890296FA
:1011E0009A838983CE0101960E9432080F900F9056
:1011F000DF91CF911F910F910895EF92FF920F937E
:101200001F93CF93DF9300D0CDB7DEB77C01FC01F5
:10121000038914890E5F1F4FC8010E9407061A83B5
:10122000098360E46827CE0101960E943208F70125
:101230009089892F97FB87F98058808B0F900F90AA
:10124000DF91CF911F910F91FF90EF9008951F9222
:101250000F920FB60F9211242F933F938F939F936A
:10126000AF93BF938091A7029091A802A091A90289
:10127000B091AA023091A60223E0230F2D3758F532
:101280000196A11DB11D2093A6028093A702909301
:10129000A802A093A902B093AA028091A202909101
:1012A000A302A091A402B091A5020196A11DB11DB7
:1012B0008093A2029093A302A093A402B093A502EC
:1012C000BF91AF919F918F913F912F910F900FBE42
:1012D0000F901F90189526E8230F0296A11DB11DAF
:1012E000D2CF1F920F920FB60F9211242F933F93DC
:1012F0004F935F936F937F938F939F93AF93BF931E
:10130000EF93FF93E0910901F0910A010995FF9194
:10131000EF91BF91AF919F918F917F916F915F916D
:101320004F913F912F910F900FBE0F901F901895E6
:101330001F920F920FB60F9211242F933F934F934A
:101340005F936F937F938F939F93AF93BF93EF932D
:10135000FF93E0910701F09108010995FF91EF914A
:10136000BF91AF919F918F917F916F915F914F91BD
:101370003F912F910F900FBE0F901F9018951F92C5
:101380000F920FB60F9211242F933F934F935F93B9
:101390006F937F938F939F93AF93BF93CF93DF937D
:1013A000EF93FF9380911801C0911701D0E087FF60
:1013B00024C01092850010928400809118018F5FE4
:1013C0008093180180911801082E000C990B8C173E
:1013D0009D0724F4809118018C30C4F18091840021
:1013E00090918500049680349C4908F47AC08091DD
:1013F000840090918500049676C080911801082E93
:10140000000C990B8C179D07C4F6E09118018E2FE4
:10141000EE0F990BFC01EE0FFF1FE80FF91FEA5DBD
:10142000FE4F808186FFC9CFE09118018E2FEE0F0D
:10143000990BFC01EE0FFF1FE80FF91FEA5DFE4F4D
:10144000808160E08F730E94D700B7CF2091840025
:1014500030918500E09118018E2FEE0F990BFC0161
:10146000EE0FFF1FE80FF91FEA5DFE4F81819281A9
:10147000820F931F9093890080938800E091180158
:101480008E2FEE0F990BFC01EE0FFF1FE80FF91FD7
:10149000EA5DFE4F808186FF11C0E09118018E2F1A
:1014A000EE0F990BFC01EE0FFF1FE80FF91FEA5D2D
:1014B000FE4F808161E08F730E94D700FF91EF9112
:1014C000DF91CF91BF91AF919F918F917F916F915C
:1014D0005F914F913F912F910F900FBE0F901F90F2
:1014E000189580E49CE990938900809388008FEFA1
:1014F00080931801E3CFCF93DF93CDB7DEB72A9760
:101500000FB6F894DEBF0FBECDBF789484B582606D
:1015100084BD84B5816084BD85B5826085BD85B597
:10152000816085BD80916E00816080936E00109215
:101530008100809181008260809381008091810090
:101540008160809381008091800081608093800021
:101550008091B10084608093B1008091B00081607F
:101560008093B00080917A00846080937A008091AB
:101570007A00826080937A0080917A008160809303
:101580007A0080917A00806880937A001092C1007E
:101590001092770182E080937801E8E8F0E0E4912E
:1015A000F0E0EE0FFF1FE859FF4F85919491909363
:1015B0007A0180937901ECE9F0E0E491E0937B011A
:1015C00060E082E00E940501E0E5F1E086E1DF01F4
:1015D0001D928A95E9F782E990E090931E0180932D
:1015E0001D0182E590E090931C0180931B0180EC2B
:1015F00080936601109267018FEF9FEF90937D01BA
:1016000080937C0110927E0183E080931A01809187
:101610007B018093190163E070E0809177010E9463
:101620008C0080E090E0892B09F4D1C38DE190E03B
:101630000E940000682F606C8DE190E00E9419020A
:1016400080937F016BE087E090E00E9419026DE0DB
:1016500088E090E00E94190280E00E9409068091D3
:10166000BA01877080688093BA018091BB018E7F38
:101670008093BB018091A501877088688093A50144
:101680008091A6018E7F8093A6018091CF01877003
:1016900080698093CF018091D0018E7F8093D001AB
:1016A0008091E401877088698093E4018091E5016D
:1016B0008E7F8093E5018CEF93E00E9411158D835E
:1016C0008DEF93E00E9411158E838EEF93E00E94C0
:1016D00011158F838FEF93E00E94111588878D81FC
:1016E0009E81AF81B8858F3E9E4BAD4ABE4D09F1BC
:1016F0008FEE9EEBADEABEED89839A83AB83BC830C
:101700009E012F5F3F4F79010CEF13E01A87098785
:10171000D7016D917D01CE0109960E9432080F5FBD
:101720001F4F0115B4E01B0789F78BE091E00E9481
:101730004B0884E893E00E9411158093800185E8AE
:1017400093E00E9411158093810186E893E00E9446
:101750001115809382010CE012E0F12CE12CE0E8FD
:10176000CE2EF9E1DF2E80910001909101010196CA
:1017700021F41092010110920001A0900001B0909C
:101780000101D8015496BC92AE925397C5010496BC
:1017900090930101809300015296CC92DE9CF0015F
:1017A000DF9CF00D1124E45EFD4F80818064808316
:1017B000BFEFAB16BB0609F466C0C50102960E94D6
:1017C00007068E73F1F0F8016485C5010E941806C2
:1017D000D80153968D919C9154971D966C910196CA
:1017E0000E941806F80183899489638502960E94F5
:1017F0001806D80153968D919C9160E003960E9443
:101800001806F801A388B488C5010E940706D8010C
:101810001C968C93C50101960E940706F8018587E6
:10182000C50102960E940706D8011B968C93C80139
:101830000E945501F8018389948903960E94070646
:10184000D80152969C91529797FF11C080FFC1C258
:101850001D969C911D9717969C93DE9CF001DF9C32
:10186000F00D1124EC5EFD4F908194609083DE9C1E
:10187000F001DF9CF00D1124E45EFD4F86FFB6C23F
:10188000808180688083DE9CC001DF9C900D1124E4
:101890009C01245E3D4F5901D9018C9161E08F7309
:1018A0000E940501F501818181608183FFEFEF1ABC
:1018B000FF0A075E1F4F26E0E216F10409F053CF3E
:1018C00085E00E94960510912501809124018117E1
:1018D00010F4109223010E944101C0901F01D0908A
:1018E0002001E0902101F09022014B015C018C1855
:1018F0009D08AE08BF08C0900201D0900301E0909F
:101900000401F09005018C149D04AE04BF04F0F0B6
:1019100060931F0170932001809321019093220115
:1019200080912301882309F464C21F5F109325016D
:101930008091020190910301A0910401B0910501F1
:101940000197A105B10509F095C22D980CE012E0B0
:10195000D12CC12C39E1B32E4CE0642E0E94410100
:10196000D80113962D913D914D915C9116971B01D5
:101970002C01221A330A440A550AB201A1011B960E
:101980008C9190E0B0E0A0E084179507A607B70718
:1019900008F036C10E944101D80113966D937D93E2
:1019A0008D939C93169761E017969C9117971E96BE
:1019B0008C91981708F060E0BC9C7001BD9CF00C05
:1019C0001124F701E45EFD4F808187FB992790F990
:1019D00069278F730E94D700F701E45FFD4F808570
:1019E00082FF4DC2F801A58480FF02C0F801A784E0
:1019F000D80117968C9117978A1518F48F5F179650
:101A00008C93F8018781A81610F481508783F80120
:101A1000A78181858A130AC0BC9CF001BD9CF00D92
:101A20001124E45FFD4F818980FFEAC0F801A1879E
:101A30007080FBE0F71508F457C0F801828178E563
:101A4000872E72E0972E881A910887FD9394880C50
:101A5000991C880C991C818198E8E92EF12CE81AD0
:101A6000F10887FDF394EE0CFF1CEE0CFF1C170130
:101A70000F2C000C44085508B0E0A53BB10514F04C
:101A8000A4EBB0E09401092C000C440B550B221977
:101A90003309440955090E94511524EB30E040E018
:101AA00050E00E942715BA01A901420D531D641D83
:101AB000751D4E155F052CF07401481559050CF481
:101AC0007A01F2E0EF1AF108EE0CFF1C2FB7F89440
:101AD000872D90E0FC01EE0FFF1FE80FF91FEA5D74
:101AE000FE4FF282E1822FBF0E944101D80155963C
:101AF0006D937D938D939C93589717968C91A81214
:101B00000AC0BC9CF001BD9CF00D1124E45FFD4FA8
:101B1000818980FF75C0F8018081282F30E0F901AC
:101B2000EE0FFF1FE20FF31FEA5DFE4F908196FD5F
:101B300075C08C3008F05AC0BC9CF001BD9CF00D03
:101B40001124EA5EFD4F80818F73F82E61E00E94C0
:101B50000501D8018C91282F30E0F901EE0FFF1F0D
:101B6000E20FF31FEA5DFE4F9081907CF92AF0822C
:101B700011961C92119712961C92662D0E948A153E
:101B8000869DA001112430E020E0BA01620F731F8E
:101B9000FB01EE0FFF1FE60FF71FEA5DFE4F90817E
:101BA00096FD16C02F5F3F4F2C30310571F7811124
:101BB0000FC010928000B2E0B093810010928500B7
:101BC00010928400B19A80916F00826080936F00C0
:101BD000D801EC918E2F90E0FC01EE0FFF1FE80F73
:101BE000F91FEA5DFE4F808180648083BC9CF00118
:101BF000BD9CF00D1124E45EFD4F81818E7F8183B9
:101C0000D801EC918E2F90E0FC01EE0FFF1FE80F42
:101C1000F91FEA5DFE4F808186FF28C0BC9CF00161
:101C2000BD9CF00D1124E45FFD4F808986FF1EC02E
:101C30000E944101F801258936894789508D621B30
:101C4000730B840B950B653F71408105910570F016
:101C5000D801EC918E2F90E0FC01EE0FFF1FE80FF2
:101C6000F91FEA5DFE4F80818F7B8083BFEFCB1A27
:101C7000DB0A075E1F4FE6E0CE16D10409F06ECEF8
:101C80000E944101009108021091090220910A026C
:101C900030910B021B012C01201A310A420A530A0F
:101CA00092018101023311052105310508F483C138
:101CB000609308027093090280930A0290930B02CA
:101CC0001FE9E12E11E0F12E10E000E085E1C82EC1
:101CD000C09ED001C19EB00D1124AB55BE4F2C91BA
:101CE000D22ED694D694D69411962C91217022950A
:101CF000220F207E2D2930E0F901E255FF4F84911B
:101D0000F901E656FF4FB490F901EA57FF4FD4901E
:101D1000DD2009F4B8C081110E94AE00ED2DF0E085
:101D2000EE0FFF1FE859FF4FA591B491EC91BE2231
:101D300081E009F480E0D82EF70185859685A78596
:101D4000B089892B8A2B8B2B09F09FC0F7018585E1
:101D50009685A785B089892B8A2B8B2B39F00E9419
:101D60004101F70161877287838794879D2D917068
:101D7000C09E9001C19E300D1124F901EB55FE4F1C
:101D8000808182FB882780F9D81215C02A553E4FE2
:101D9000D9018C9186958170D81609F4D1C08181C2
:101DA00090FB81F98183DD2009F4C4C08C608183BC
:101DB000828182608283C09EF001C19EF00D112459
:101DC000EB55FE4F808190FB82F9808377C081E0E4
:101DD00031CCF80194859783DE9CF001DF9CF00DF7
:101DE0001124EC5EFD4F90819B7F40CD80818F77E9
:101DF00049CD80914B01882369F08DE491E0A0E00A
:101E0000B0E08093020190930301A0930401B0938A
:101E100005018ECD80919601813071F474E6272EF4
:101E2000312C412C512C209202013092030140921E
:101E30000401509205017CCD823079F468EEA62E23
:101E400063E0B62EC12CD12CA0920201B092030106
:101E5000C0920401D09205016BCDC12CD12C76012A
:101E6000C394C0920201D0920301E0920401F09267
:101E700005015ECD85B190E2892785B967CDD8018E
:101E80001C96AC90B1CDD12C57CF0E944101D70107
:101E900019968D909D90AD90BC901C97681979090A
:101EA0008A099B091D968D909D90AD90BC9050978E
:101EB000681579058A059B0508F048CFC09EC001CA
:101EC000C19E900D1124FC01EA55FE4F608166957C
:101ED000669563708B559E4FFC01808183708617D9
:101EE00041F0D7011496ED91FC91309711F0C701A4
:101EF0000995C09EF001C19EF00D1124DF01AA5585
:101F0000BE4F8C9186958695DF01AB55BE4F982FBD
:101F100093708C918C7F892B8C93E156FE4F878137
:101F20008073803399F48681837091E08330B1F0BF
:101F300090E014C0837F88608183828184603ACF7F
:101F40008181837FD1108460818335CF803209F015
:101F500018C18681837091E0823051F7C09EF001F4
:101F6000C19EF00D1124EB55FE4F818190FB86F947
:101F70008183982F9C709C3019F4837F84608183C7
:101F8000C09EF001C19EF00D1124DF01A156BE4F8D
:101F900017968C918C70883029F4EB55FE4F818117
:101FA000837F81830F5F1F4FB5E1EB0EF11C05307E
:101FB000110509F08DCE8091E4018370E82E8091A7
:101FC000CF018370F82E0E94410100914C011091C5
:101FD0004D0120914E0130914F011B012C01201A1F
:101FE000310A420A530A92018101083C1105210578
:101FF0003105C0F160934C0170934D0180934E0107
:1020000090934F018091CF0183709091E401937080
:1020100009F0D4C0882331F110924B01E0914A01BC
:102020000E2F10E029E1E29FF0011124E45FFD4F43
:10203000808582FFB1C08585843108F4ADC08250AF
:102040008587CF010E94550189E1809FF001819F22
:10205000F00D1124EC5EFD4F80818E7F808381E046
:102060000E94960543E0E41611F0F4120AC0809134
:102070004A0159E1859FC0011124845F9D4F0E9450
:10208000CE088FE991E00E94AC05182F813009F04D
:10209000CCC010924B0183E00E94960580914A01CA
:1020A000A9E18A9FC0011124FC01EC5EFD4F608113
:1020B0006E7F608362FB662760F96127845F9D4FB6
:1020C0000E941A0684EB91E00E94AC05813009F071
:1020D000C2C010924B0184E00E94960580914A0193
:1020E0008F5F863009F4B4C080934A0180914A0121
:1020F000E9E18E9FC0011124FC01EC5EFD4F60817F
:1021000062FB662760F921E06227845F9D4F0E9491
:102110001A06809168018823B1F00E944101009164
:10212000690110916A0120916B0130916C01601B73
:10213000710B820B930B653171058105910518F0C8
:1021400080E00E94090680915201882309F4AEC004
:10215000F89488E0EEE5F1E0A7E9B1E001900D9296
:102160008A95E1F710925201789480919701E82FB7
:10217000F0E0E756FE4F863008F07AC011928F5F8C
:10218000FACF803109F0D4CE86818370825091E0FD
:10219000823008F4E3CECCCE89E1809FD001819FCC
:1021A000B00D1124A45FBD4F1C968C911C978431F7
:1021B00008F447CF82501C968C9343CF811152CFA5
:1021C00010924B01E0914A010E2F10E039E1E39F9C
:1021D000F0011124E45FFD4F808582FF15C08585E5
:1021E000813A90F48E5F8587CF010E94550189E185
:1021F000809FF001819FF00D1124EC5EFD4F8081E6
:102200008E7F808382E02CCF89E1809FD001819FE7
:10221000B00D1124A45FBD4F1C968C911C97813A80
:1022200018F78E5F1C968C93DFCF823009F04ACF6F
:1022300010924B0180914A01B9E18B9FC00111249A
:10224000845F9D4F0E94FD0885E00E9496053ACF6D
:1022500010924A014BCF823009F05BCF80914B0145
:1022600091E0892780934B0186E00E94960551CF2B
:1022700080E090E0892B21F087E991E00E94000046
:102280008091990181111EC090919A0191111AC0FB
:1022900080E090E0892B19F080E00E94000080919E
:1022A0006801882359F081E00E946E0110910601B7
:1022B0001F3F09F023C21092960126C281E00E94BE
:1022C0000906F4CF90916801992309F491C08057D1
:1022D000803108F08AC081E00E946E011091970160
:1022E00080916F0118130AC0412F50E061E771E03F
:1022F00089E991E00E94C415892B61F010926E016A
:1023000088E0E7E9F1E0AFE6B1E001900D928A954F
:10231000E1F7CCCF80916E018F5F80936E01133017
:1023200009F04BC090919901892F8770F0909A0124
:10233000853051F4F0926D0180E090E0892B09F432
:10234000B5CF0E940000B2CF0DE110E0843091F0D3
:10235000282F30E08430F0F400916D010023D1F09B
:102360000150110B000F111F000F111F020F131F3F
:102370000F5F1F4F93FF10C061E0C8010E9463020E
:10238000882309F493CF6F2DC8010E941902F81217
:102390008DCFD2CF8901ECCF60E0C8010E946302EB
:1023A000882309F483CF80E090E0892B21F0C801D5
:1023B0000E940000ECCF81E0EACF143009F076CF24
:1023C00080919901682F70E0762F662766277370D9
:1023D00090919A01692B6F5F7F4F2DE431E040911E
:1023E0009B018C700E949A0261CF80E00E940906D6
:1023F000E0919901EF3F61F480919A01811156CFEC
:1024000080E090E0892B09F451CF0E9400004ECF6C
:10241000E7FD0DC000919C0120919B0140919A0124
:1024200070E060E08E2F90E00E9477073FCFE03CA5
:1024300008F053C19091660197FF38CF80919A01BF
:10244000282F30E0890100951095000F111F000F13
:10245000111F007C1170EF730E2B35952795F22F0D
:10246000F370BF2E20919701253039F58C788C3090
:1024700021F50E949F018017910721F00F3F114025
:1024800009F014CF00919A0110E0102F00270027C7
:10249000137080919B01080F111D0F5F1F4FF0906B
:1024A0009C0161E0C8010E9463026F2D882309F43A
:1024B000FDCEC8010E941902F9CE680131E0C31AAD
:1024C000D108CC0CDD1CCC0CDD1CCB2876014FEFE9
:1024D000E41AF40A80917E018823F9F096FF3DC04A
:1024E000C70160E071E00E949615682F81E090E0DE
:1024F0000E941902C701F7FE02C081509F4F692F49
:1025000089E090E00E94190280E090E0892B19F0A8
:10251000C7010E94000010927E018091660180FD3B
:1025200035C080919701843009F04AC080919A01AA
:102530008978813009F0BACE60919B01C7010E9471
:102540005A0580E090E0892B09F4B0CE40919B01C0
:102550006B2DC7010E940000A9CEB8016F737727C9
:1025600081E090E00E941902B80146E075956795F8
:102570004A95E1F789E090E00E94190280E090E03E
:10258000892B49F2C8010E940000C5CF86FF0CC00C
:102590000E949F018E159F0521F25DEFE51657E021
:1025A000F5060CF0BECF82CE0E949F0180179107E6
:1025B00009F4B7CF0F3F81E0180709F4B2CF76CE08
:1025C000833041F540919A01942F9170C92E43FBBD
:1025D000DD24D0F880E090E0892B31F047702D2D7C
:1025E000B801C7010E9400008091660186FF06C005
:1025F0004D2D6C2DC7010E94750858CE80E090E0EB
:10260000892B09F453CE2D2D4C2D6B2DC8010E9422
:1026100000004CCE863009F049CE80919A01982F67
:102620009978913021F08F78803809F03FCE8091F1
:10263000660186FF28C00E949F018E159F05E9F460
:1026400080919B0190E0382F222722273370009140
:102650009C01020F132F111D0F5F1F4FF0909D0162
:1026600095958795959587958370992782309105E3
:1026700099F0039709F415CF19CEADEFEA16A7E04C
:10268000FA06F4F613CE0E949F0180179107C1F25B
:102690000F3F1140A9F20ACEF4FE08CE61E0C80156
:1026A0000E946302882309F401CE80E090E0892B28
:1026B00079F0C8010E9400009F2D977061E070E0E2
:1026C00001C0660F9A95EAF7F3FE04C0682BF1CEBD
:1026D00081E0F2CF60956823ECCEE83E08F0E6CDCD
:1026E000E05CFF0B80919A0100919D0120919C017B
:1026F00040919B0161E070E09E2F96CE8091960103
:10270000882351F08230A1F180E090E0892B09F418
:10271000DAC80E940000D7C88091950180FFF4CFED
:102720008091940181FDF0CF8091930181FDECCFE8
:102730008091920181FDE8CF8091910181FDE4CFEC
:102740008091900181FDE0CF80918F0181FDDCCFF0
:1027500080918E0181FDD8CF80918D0181FDD4CFF4
:1027600080918C018A3581F682E080939601CCCFEE
:1027700080918D0181FDBFC00E944101C090880100
:10278000D0908901E0908A01F0908B011B012C010F
:102790002C183D084E085F087201610122E3C21641
:1027A000D104E104F10400F1609388017093890180
:1027B00080938A0190938B0139E1139FF0011124DA
:1027C0008F01045F1D4F80918C01D8011F968C935F
:1027D000EC5EFD4F8081816080830E944101F801A1
:1027E000658B768B878B908F8091940180FF19C0C9
:1027F0000091060160918C01F9E10F9F8001112485
:10280000045F1D4FD8011C966C931C9753968D91B5
:102810009C910E941806C8010E94550182E00E9406
:1028200096058091930180FF17C000910601609189
:102830008C01B9E10B9F80011124045F1D4FF80149
:1028400065878389948901960E941806C8010E94B1
:10285000550183E00E9496058091920180FF0DC092
:1028600080910601F9E18F9FC0011124845F9D4F83
:102870000E94FD0884E00E9496058091910181FFED
:1028800005C0809181018F738093810180919001B7
:1028900081FF06C0809181018F73806480938101E4
:1028A00080918F0181FF06C0809181018F738068C4
:1028B0008093810190918E018091820191FB80F93A
:1028C000809382018091950181FD1ECF8091060148
:1028D00029E1829FC0011124FC01EC5EFD4F2081A3
:1028E0002E7F2083845F9D4F0E94CE0880E891E078
:1028F0000E944B08E0CC0E944101C0908401D0901E
:102900008501E0908601F09087011B012C012C18B5
:102910003D084E085F087201610128EBC2162BE0EA
:10292000D206E104F10408F45FCF60938401709350
:102930008501809386019093870149E1149F90015E
:102940001124C901845F9D4F40918301DC011B96D6
:102950004C932C5E3D4FF901608162FB662760F964
:1029600021E062270E941A063FCF809191018E7F5D
:102970008D7F80939101809190018E7F8D7F8093D8
:10298000900180918F018E7F8D7F80938F01809148
:102990008E018E7F8D7F80938E01ECE0F2E04FEF11
:1029A00068EB7BE02FEF3FEF809117018C30B8F59B
:1029B00091E0980F90931701808390E0DC01AA0FBB
:1029C000BB1FA80FB91FAA5DBE4F12967C936E93D2
:1029D0001197348B238B799682E0E23AF80721F73E
:1029E000EFE9F1E0118210821382128215821482C3
:1029F00026818781158616861786108A9085286F0E
:102A0000246026838C7C83608068878396609160D5
:102A10009087759682E0E830F80721F708954083A3
:102A2000D8CFF999FECF92BD81BDF89A992780B58C
:102A30000895262FF999FECF1FBA92BD81BD20BD02
:102A40000FB6F894FA9AF99A0FBE01960895052EDA
:102A500097FB1EF400940E943E1557FD07D00E947C
:102A6000591507FC03D04EF40C943E155095409533
:102A7000309521953F4F4F4F5F4F0895909580952A
:102A8000709561957F4F8F4F9F4F08950E947B15E2
:102A9000A59F900DB49F900DA49F800D911D1124B2
:102AA0000895B7FF0C9446150E944615821B930BA0
:102AB0000895A1E21A2EAA1BBB1BFD010DC0AA1F7F
:102AC000BB1FEE1FFF1FA217B307E407F50720F097
:102AD000A21BB30BE40BF50B661F771F881F991F12
:102AE0001A9469F760957095809590959B01AC015B
:102AF000BD01CF010895A29FB001B39FC001A39F64
:102B0000700D811D1124911DB29F700D811D112426
:102B1000911D0895991B79E004C0991F961708F03C
:102B2000961B881F7A95C9F78095089597FB072E05
:102B300016F4009407D077FD09D00E94AA1507FC6F
:102B400005D03EF4909581959F4F089570956195BD
:102B50007F4F0895AA1BBB1B51E107C0AA1FBB1FD3
:102B6000A617B70710F0A61BB70B881F991F5A9519
:102B7000A9F780959095BC01CD010895EE0FFF1F38
:102B80000590F491E02D0994FB01DC0104C08D91C6
:102B90000190801921F441505040C8F7881B990BCF
:062BA0000895F894FFCF38
:0E2BA600FFFFF4010000FF5401540101000183
:00000001FF
